{
    "contractName": "GovernanceToken",
    "abi": [
        {
            "inputs": [],
            "stateMutability": "nonpayable",
            "type": "constructor"
        },
        {
            "anonymous": false,
            "inputs": [
                {
                    "indexed": true,
                    "internalType": "address",
                    "name": "owner",
                    "type": "address"
                },
                {
                    "indexed": true,
                    "internalType": "address",
                    "name": "spender",
                    "type": "address"
                },
                {
                    "indexed": false,
                    "internalType": "uint256",
                    "name": "value",
                    "type": "uint256"
                }
            ],
            "name": "Approval",
            "type": "event"
        },
        {
            "anonymous": false,
            "inputs": [
                {
                    "indexed": true,
                    "internalType": "address",
                    "name": "from",
                    "type": "address"
                },
                {
                    "indexed": false,
                    "internalType": "uint256",
                    "name": "amount",
                    "type": "uint256"
                }
            ],
            "name": "Burn",
            "type": "event"
        },
        {
            "anonymous": false,
            "inputs": [
                {
                    "indexed": true,
                    "internalType": "bool",
                    "name": "enabled",
                    "type": "bool"
                }
            ],
            "name": "InflationRun",
            "type": "event"
        },
        {
            "anonymous": false,
            "inputs": [
                {
                    "indexed": true,
                    "internalType": "uint256",
                    "name": "newInflationRatePct",
                    "type": "uint256"
                },
                {
                    "indexed": false,
                    "internalType": "uint256",
                    "name": "newAdjustmentSpan",
                    "type": "uint256"
                }
            ],
            "name": "InflationTuned",
            "type": "event"
        },
        {
            "anonymous": false,
            "inputs": [
                {
                    "indexed": true,
                    "internalType": "address",
                    "name": "to",
                    "type": "address"
                },
                {
                    "indexed": false,
                    "internalType": "uint256",
                    "name": "amount",
                    "type": "uint256"
                }
            ],
            "name": "Mint",
            "type": "event"
        },
        {
            "anonymous": false,
            "inputs": [
                {
                    "indexed": true,
                    "internalType": "address",
                    "name": "from",
                    "type": "address"
                },
                {
                    "indexed": true,
                    "internalType": "address",
                    "name": "to",
                    "type": "address"
                },
                {
                    "indexed": false,
                    "internalType": "uint256",
                    "name": "value",
                    "type": "uint256"
                }
            ],
            "name": "Transfer",
            "type": "event"
        },
        {
            "inputs": [],
            "name": "MAX_CAP",
            "outputs": [
                {
                    "internalType": "uint256",
                    "name": "",
                    "type": "uint256"
                }
            ],
            "stateMutability": "view",
            "type": "function"
        },
        {
            "inputs": [],
            "name": "MAX_RATE",
            "outputs": [
                {
                    "internalType": "uint256",
                    "name": "",
                    "type": "uint256"
                }
            ],
            "stateMutability": "view",
            "type": "function"
        },
        {
            "inputs": [],
            "name": "SPAN_MAX",
            "outputs": [
                {
                    "internalType": "uint256",
                    "name": "",
                    "type": "uint256"
                }
            ],
            "stateMutability": "view",
            "type": "function"
        },
        {
            "inputs": [],
            "name": "SPAN_MIN",
            "outputs": [
                {
                    "internalType": "uint256",
                    "name": "",
                    "type": "uint256"
                }
            ],
            "stateMutability": "view",
            "type": "function"
        },
        {
            "inputs": [
                {
                    "internalType": "address",
                    "name": "owner",
                    "type": "address"
                },
                {
                    "internalType": "address",
                    "name": "spender",
                    "type": "address"
                }
            ],
            "name": "allowance",
            "outputs": [
                {
                    "internalType": "uint256",
                    "name": "",
                    "type": "uint256"
                }
            ],
            "stateMutability": "view",
            "type": "function"
        },
        {
            "inputs": [
                {
                    "internalType": "address",
                    "name": "spender",
                    "type": "address"
                },
                {
                    "internalType": "uint256",
                    "name": "amount",
                    "type": "uint256"
                }
            ],
            "name": "approve",
            "outputs": [
                {
                    "internalType": "bool",
                    "name": "",
                    "type": "bool"
                }
            ],
            "stateMutability": "nonpayable",
            "type": "function"
        },
        {
            "inputs": [],
            "name": "available_mint",
            "outputs": [
                {
                    "internalType": "uint256",
                    "name": "",
                    "type": "uint256"
                }
            ],
            "stateMutability": "view",
            "type": "function"
        },
        {
            "inputs": [
                {
                    "internalType": "address",
                    "name": "account",
                    "type": "address"
                }
            ],
            "name": "balanceOf",
            "outputs": [
                {
                    "internalType": "uint256",
                    "name": "",
                    "type": "uint256"
                }
            ],
            "stateMutability": "view",
            "type": "function"
        },
        {
            "inputs": [
                {
                    "internalType": "uint256",
                    "name": "amount",
                    "type": "uint256"
                }
            ],
            "name": "burn",
            "outputs": [],
            "stateMutability": "nonpayable",
            "type": "function"
        },
        {
            "inputs": [
                {
                    "internalType": "address",
                    "name": "account",
                    "type": "address"
                },
                {
                    "internalType": "uint256",
                    "name": "amount",
                    "type": "uint256"
                }
            ],
            "name": "burnFrom",
            "outputs": [],
            "stateMutability": "nonpayable",
            "type": "function"
        },
        {
            "inputs": [],
            "name": "decimals",
            "outputs": [
                {
                    "internalType": "uint8",
                    "name": "",
                    "type": "uint8"
                }
            ],
            "stateMutability": "view",
            "type": "function"
        },
        {
            "inputs": [
                {
                    "internalType": "address",
                    "name": "spender",
                    "type": "address"
                },
                {
                    "internalType": "uint256",
                    "name": "subtractedValue",
                    "type": "uint256"
                }
            ],
            "name": "decreaseAllowance",
            "outputs": [
                {
                    "internalType": "bool",
                    "name": "",
                    "type": "bool"
                }
            ],
            "stateMutability": "nonpayable",
            "type": "function"
        },
        {
            "inputs": [
                {
                    "internalType": "address",
                    "name": "spender",
                    "type": "address"
                },
                {
                    "internalType": "uint256",
                    "name": "addedValue",
                    "type": "uint256"
                }
            ],
            "name": "increaseAllowance",
            "outputs": [
                {
                    "internalType": "bool",
                    "name": "",
                    "type": "bool"
                }
            ],
            "stateMutability": "nonpayable",
            "type": "function"
        },
        {
            "inputs": [],
            "name": "inflation_rate",
            "outputs": [
                {
                    "internalType": "uint256",
                    "name": "",
                    "type": "uint256"
                }
            ],
            "stateMutability": "view",
            "type": "function"
        },
        {
            "inputs": [],
            "name": "last_tuning_on",
            "outputs": [
                {
                    "internalType": "uint256",
                    "name": "",
                    "type": "uint256"
                }
            ],
            "stateMutability": "view",
            "type": "function"
        },
        {
            "inputs": [],
            "name": "max_supply",
            "outputs": [
                {
                    "internalType": "uint256",
                    "name": "",
                    "type": "uint256"
                }
            ],
            "stateMutability": "view",
            "type": "function"
        },
        {
            "inputs": [
                {
                    "internalType": "address",
                    "name": "to",
                    "type": "address"
                },
                {
                    "internalType": "uint256",
                    "name": "amount",
                    "type": "uint256"
                }
            ],
            "name": "mint",
            "outputs": [],
            "stateMutability": "nonpayable",
            "type": "function"
        },
        {
            "inputs": [],
            "name": "name",
            "outputs": [
                {
                    "internalType": "string",
                    "name": "",
                    "type": "string"
                }
            ],
            "stateMutability": "view",
            "type": "function"
        },
        {
            "inputs": [
                {
                    "internalType": "address",
                    "name": "to",
                    "type": "address"
                }
            ],
            "name": "revokeAdmin",
            "outputs": [],
            "stateMutability": "nonpayable",
            "type": "function"
        },
        {
            "inputs": [
                {
                    "internalType": "bool",
                    "name": "enable",
                    "type": "bool"
                }
            ],
            "name": "runInflation",
            "outputs": [],
            "stateMutability": "nonpayable",
            "type": "function"
        },
        {
            "inputs": [
                {
                    "internalType": "address",
                    "name": "who",
                    "type": "address"
                },
                {
                    "internalType": "bool",
                    "name": "enable",
                    "type": "bool"
                }
            ],
            "name": "setAdmin",
            "outputs": [],
            "stateMutability": "nonpayable",
            "type": "function"
        },
        {
            "inputs": [
                {
                    "internalType": "address",
                    "name": "who",
                    "type": "address"
                },
                {
                    "internalType": "bool",
                    "name": "enable",
                    "type": "bool"
                }
            ],
            "name": "setBurner",
            "outputs": [],
            "stateMutability": "nonpayable",
            "type": "function"
        },
        {
            "inputs": [
                {
                    "internalType": "address",
                    "name": "who",
                    "type": "address"
                },
                {
                    "internalType": "bool",
                    "name": "enable",
                    "type": "bool"
                }
            ],
            "name": "setMinter",
            "outputs": [],
            "stateMutability": "nonpayable",
            "type": "function"
        },
        {
            "inputs": [],
            "name": "symbol",
            "outputs": [
                {
                    "internalType": "string",
                    "name": "",
                    "type": "string"
                }
            ],
            "stateMutability": "view",
            "type": "function"
        },
        {
            "inputs": [],
            "name": "totalSupply",
            "outputs": [
                {
                    "internalType": "uint256",
                    "name": "",
                    "type": "uint256"
                }
            ],
            "stateMutability": "view",
            "type": "function"
        },
        {
            "inputs": [
                {
                    "internalType": "address",
                    "name": "to",
                    "type": "address"
                },
                {
                    "internalType": "uint256",
                    "name": "amount",
                    "type": "uint256"
                }
            ],
            "name": "transfer",
            "outputs": [
                {
                    "internalType": "bool",
                    "name": "",
                    "type": "bool"
                }
            ],
            "stateMutability": "nonpayable",
            "type": "function"
        },
        {
            "inputs": [
                {
                    "internalType": "address",
                    "name": "from",
                    "type": "address"
                },
                {
                    "internalType": "address",
                    "name": "to",
                    "type": "address"
                },
                {
                    "internalType": "uint256",
                    "name": "amount",
                    "type": "uint256"
                }
            ],
            "name": "transferFrom",
            "outputs": [
                {
                    "internalType": "bool",
                    "name": "",
                    "type": "bool"
                }
            ],
            "stateMutability": "nonpayable",
            "type": "function"
        },
        {
            "inputs": [
                {
                    "internalType": "uint256",
                    "name": "newRatePct",
                    "type": "uint256"
                },
                {
                    "internalType": "uint256",
                    "name": "newSpan",
                    "type": "uint256"
                }
            ],
            "name": "tuneInflation",
            "outputs": [],
            "stateMutability": "nonpayable",
            "type": "function"
        },
        {
            "inputs": [],
            "name": "tuning_span",
            "outputs": [
                {
                    "internalType": "uint256",
                    "name": "",
                    "type": "uint256"
                }
            ],
            "stateMutability": "view",
            "type": "function"
        }
    ],
    "bytecode": "6080604052630d1cef0060088190556009556000600a55600b805460ff191690556301e13380600c556002600d553480156200003a57600080fd5b50604051806040016040528060098152602001680c1e129bdd5c9b985b60ba1b81525060405180604001604052806003815260200162183c2560e91b81525081600390816200008a91906200018c565b5060046200009982826200018c565b50503360009081526005602090815260408083208054600160ff19918216811790925560068452828520805482168317905560079093529220805490911690911790555042600a5562000258565b634e487b7160e01b600052604160045260246000fd5b600181811c908216806200011257607f821691505b6020821081036200013357634e487b7160e01b600052602260045260246000fd5b50919050565b601f8211156200018757600081815260208120601f850160051c81016020861015620001625750805b601f850160051c820191505b8181101562000183578281556001016200016e565b5050505b505050565b81516001600160401b03811115620001a857620001a8620000e7565b620001c081620001b98454620000fd565b8462000139565b602080601f831160018114620001f85760008415620001df5750858301515b600019600386901b1c1916600185901b17855562000183565b600085815260208120601f198616915b82811015620002295788860151825594840194600190910190840162000208565b5085821015620002485787850151600019600388901b60f8161c191681555b5050505050600190811b01905550565b61181880620002686000396000f3fe608060405234801561001057600080fd5b50600436106101cf5760003560e01c80635bb9cec811610104578063a457c2d7116100a2578063cf456ae711610071578063cf456ae714610390578063d669e1d4146103a3578063dd62ed3e146103ae578063e537ca8e146103c157600080fd5b8063a457c2d71461034f578063a9059cbb14610362578063bdbebeec14610375578063c24dbebd1461038857600080fd5b80638a333b50116100de5780638a333b501461032b57806391956d9c1461033457806395d89b411461033e578063a04eaa491461034657600080fd5b80635bb9cec8146102e657806370a08231146102ef57806379cc67901461031857600080fd5b80632d34567011610171578063395093511161014b578063395093511461029a57806340c10f19146102ad57806342966c68146102c05780634b0bddd2146102d357600080fd5b80632d3456701461026f578063313ce5671461028257806331eb4cc31461029157600080fd5b80630d895ee1116101ad5780630d895ee11461022a578063180692d01461023d57806318160ddd1461025457806323b872dd1461025c57600080fd5b806302e961f5146101d457806306fdde03146101e9578063095ea7b314610207575b600080fd5b6101e76101e2366004611451565b6103cc565b005b6101f1610574565b6040516101fe9190611473565b60405180910390f35b61021a6102153660046114dd565b610606565b60405190151581526020016101fe565b6101e7610238366004611517565b610620565b610246600d5481565b6040519081526020016101fe565b600254610246565b61021a61026a36600461154a565b61067a565b6101e761027d366004611586565b61069e565b604051601281526020016101fe565b61024660095481565b61021a6102a83660046114dd565b610701565b6101e76102bb3660046114dd565b610723565b6101e76102ce3660046115a8565b610943565b6101e76102e1366004611517565b610ab6565b610246600a5481565b6102466102fd366004611586565b6001600160a01b031660009081526020819052604090205490565b6101e76103263660046114dd565b610b10565b61024660085481565b610246624f1a0081565b6101f1610b29565b610246600c5481565b61021a61035d3660046114dd565b610b38565b61021a6103703660046114dd565b610bb3565b6101e76103833660046115c1565b610bc1565b610246600a81565b6101e761039e366004611517565b610e93565b610246631dcd650081565b6102466103bc3660046115dc565b610eed565b6102466301e1338081565b3360009081526005602052604090205460ff166104045760405162461bcd60e51b81526004016103fb90611606565b60405180910390fd5b600b5460ff1661047c5760405162461bcd60e51b815260206004820152603f60248201527f4368616e676573206f6e20696e666c6174696f6e20617265206f6e6c7920616c60448201527f6c6f77656420616674657220616e20696e666c6174696f6e20726f756e642e0060648201526084016103fb565b624f1a00811015801561049357506301e133808111155b6104d65760405162461bcd60e51b815260206004820152601460248201527329b830b7103634b6b4ba399032bc31b2b2b2399760611b60448201526064016103fb565b600a8211156105275760405162461bcd60e51b815260206004820152601c60248201527f4d617820696e666c6174696f6e20726174652065786365656465642e0000000060448201526064016103fb565b600d829055600c81905560405181815282907fe35602acfd8116bf76e528d2a6f8bb0b75e0730260865961def0dc9c3b7fba4b9060200160405180910390a25050600b805460ff19169055565b6060600380546105839061162a565b80601f01602080910402602001604051908101604052809291908181526020018280546105af9061162a565b80156105fc5780601f106105d1576101008083540402835291602001916105fc565b820191906000526020600020905b8154815290600101906020018083116105df57829003601f168201915b5050505050905090565b600033610614818585610f18565b60019150505b92915050565b3360009081526005602052604090205460ff1661064f5760405162461bcd60e51b81526004016103fb90611606565b6001600160a01b03919091166000908152600660205260409020805460ff1916911515919091179055565b60003361068885828561103d565b6106938585856110b7565b506001949350505050565b3360009081526005602052604090205460ff166106cd5760405162461bcd60e51b81526004016103fb90611606565b6001600160a01b0316600090815260056020526040808220805460ff19908116600117909155338352912080549091169055565b6000336106148185856107148383610eed565b61071e919061167a565b610f18565b3360009081526007602052604090205460ff166107705760405162461bcd60e51b815260206004820152600b60248201526a2737ba1036b4b73a32b91760a91b60448201526064016103fb565b6001600160a01b0382166107b65760405162461bcd60e51b815260206004820152600d60248201526c273ab6361030b2323932b9b99760991b60448201526064016103fb565b600081116107fd5760405162461bcd60e51b815260206004820152601460248201527320b6b7bab73a103737ba103837b9b4ba34bb329760611b60448201526064016103fb565b60006009541161084f5760405162461bcd60e51b815260206004820152601e60248201527f4e6f7420617661696c61626c65206d696e7461626c6520746f6b656e732e000060448201526064016103fb565b6009548111156108ad5760405162461bcd60e51b815260206004820152602360248201527f416d6f756e742073757270617373657320617661696c61626c65206d696e7461604482015262626c6560e81b60648201526084016103fb565b806009546108bb919061168d565b600954116108cb576108cb6116a0565b6108ea826108db6012600a61179a565b6108e590846117a9565b61125b565b80600960008282546108fc919061168d565b90915550506040518181526001600160a01b038316907f0f6798a560793a54c3bcfe86a93cde1e73087d944c0ea20544137d41213968859060200160405180910390a25050565b3360009081526006602052604090205460ff166109905760405162461bcd60e51b815260206004820152600b60248201526a2737ba10313ab93732b91760a91b60448201526064016103fb565b600081116109f05760405162461bcd60e51b815260206004820152602760248201527f4275726e206e756d626572207368616c6c206265206e6f6e2d7a65726f20706f60448201526639b4ba34bb329760c91b60648201526084016103fb565b33600090815260208190526040902054811115610a5e5760405162461bcd60e51b815260206004820152602660248201527f4e6f7420656e6f75676820746f6b656e7320746f206275726e2074686973206160448201526536b7bab73a1760d11b60648201526084016103fb565b610a678161131a565b8060086000828254610a79919061168d565b909155505060405181815233907fcc16f5dbb4873280815c1ee09dbd06736cffcc184412cf7a71a0fdb75d397ca59060200160405180910390a250565b3360009081526005602052604090205460ff16610ae55760405162461bcd60e51b81526004016103fb90611606565b6001600160a01b03919091166000908152600560205260409020805460ff1916911515919091179055565b610b1b82338361103d565b610b258282611327565b5050565b6060600480546105839061162a565b60003381610b468286610eed565b905083811015610ba65760405162461bcd60e51b815260206004820152602560248201527f45524332303a2064656372656173656420616c6c6f77616e63652062656c6f77604482015264207a65726f60d81b60648201526084016103fb565b6106938286868403610f18565b6000336106148185856110b7565b3360009081526005602052604090205460ff16610bf05760405162461bcd60e51b81526004016103fb90611606565b60095415610c7a5760405162461bcd60e51b815260206004820152604b60248201527f5468657265206973207374696c6c20617661696c61626c65206d696e7473207460448201527f6f206265206d616465206265666f726520616c6c6f77696e6720746f2072756e60648201526a1034b7333630ba34b7b71760a91b608482015260a4016103fb565b631dcd65006008541115610cd05760405162461bcd60e51b815260206004820181905260248201527f4d617820737570706c7920616c7265616479206f6e206d6178206c696d69742e60448201526064016103fb565b600a544290600090610ce2908361168d565b9050600c54811015610d5c5760405162461bcd60e51b815260206004820152603b60248201527f5370616e20666f72206d696e7420706172616d73207265646566696e6974696f60448201527f6e20686173206e6f74206265656e2072656163686564207965742e000000000060648201526084016103fb565b600b5460ff1615610dbd5760405162461bcd60e51b815260206004820152602560248201527f496e666c6174696f6e206368616e6765732061726520616c72656164792061636044820152643a34bb329760d91b60648201526084016103fb565b8215610e4e5760006064600d54600854610dd791906117a9565b610de191906117c0565b9050631dcd650081600854610df6919061167a565b10610e1c57600854610e0c90631dcd650061168d565b600955631dcd6500600855610e48565b806009819055508060086000828254610e35919061167a565b9091555050600b805460ff191660011790555b50610e5c565b600b805460ff191660011790555b600a829055604051831515907fa81b9f94d2f242a45e1e50f4465decd4c86f1c6271c9ea50783870547a82b95590600090a2505050565b3360009081526005602052604090205460ff16610ec25760405162461bcd60e51b81526004016103fb90611606565b6001600160a01b03919091166000908152600760205260409020805460ff1916911515919091179055565b6001600160a01b03918216600090815260016020908152604080832093909416825291909152205490565b6001600160a01b038316610f7a5760405162461bcd60e51b8152602060048201526024808201527f45524332303a20617070726f76652066726f6d20746865207a65726f206164646044820152637265737360e01b60648201526084016103fb565b6001600160a01b038216610fdb5760405162461bcd60e51b815260206004820152602260248201527f45524332303a20617070726f766520746f20746865207a65726f206164647265604482015261737360f01b60648201526084016103fb565b6001600160a01b0383811660008181526001602090815260408083209487168084529482529182902085905590518481527f8c5be1e5ebec7d5bd14f71427d1e84f3dd0314c0f7b2291e5b200ac8c7c3b92591015b60405180910390a3505050565b60006110498484610eed565b905060001981146110b157818110156110a45760405162461bcd60e51b815260206004820152601d60248201527f45524332303a20696e73756666696369656e7420616c6c6f77616e636500000060448201526064016103fb565b6110b18484848403610f18565b50505050565b6001600160a01b03831661111b5760405162461bcd60e51b815260206004820152602560248201527f45524332303a207472616e736665722066726f6d20746865207a65726f206164604482015264647265737360d81b60648201526084016103fb565b6001600160a01b03821661117d5760405162461bcd60e51b815260206004820152602360248201527f45524332303a207472616e7366657220746f20746865207a65726f206164647260448201526265737360e81b60648201526084016103fb565b6001600160a01b038316600090815260208190526040902054818110156111f55760405162461bcd60e51b815260206004820152602660248201527f45524332303a207472616e7366657220616d6f756e7420657863656564732062604482015265616c616e636560d01b60648201526084016103fb565b6001600160a01b03848116600081815260208181526040808320878703905593871680835291849020805487019055925185815290927fddf252ad1be2c89b69c2b068fc378daa952ba7f163c4a11628f55a4df523b3ef910160405180910390a36110b1565b6001600160a01b0382166112b15760405162461bcd60e51b815260206004820152601f60248201527f45524332303a206d696e7420746f20746865207a65726f20616464726573730060448201526064016103fb565b80600260008282546112c3919061167a565b90915550506001600160a01b038216600081815260208181526040808320805486019055518481527fddf252ad1be2c89b69c2b068fc378daa952ba7f163c4a11628f55a4df523b3ef910160405180910390a35050565b6113243382611327565b50565b6001600160a01b0382166113875760405162461bcd60e51b815260206004820152602160248201527f45524332303a206275726e2066726f6d20746865207a65726f206164647265736044820152607360f81b60648201526084016103fb565b6001600160a01b038216600090815260208190526040902054818110156113fb5760405162461bcd60e51b815260206004820152602260248201527f45524332303a206275726e20616d6f756e7420657863656564732062616c616e604482015261636560f01b60648201526084016103fb565b6001600160a01b0383166000818152602081815260408083208686039055600280548790039055518581529192917fddf252ad1be2c89b69c2b068fc378daa952ba7f163c4a11628f55a4df523b3ef9101611030565b6000806040838503121561146457600080fd5b50508035926020909101359150565b600060208083528351808285015260005b818110156114a057858101830151858201604001528201611484565b506000604082860101526040601f19601f8301168501019250505092915050565b80356001600160a01b03811681146114d857600080fd5b919050565b600080604083850312156114f057600080fd5b6114f9836114c1565b946020939093013593505050565b803580151581146114d857600080fd5b6000806040838503121561152a57600080fd5b611533836114c1565b915061154160208401611507565b90509250929050565b60008060006060848603121561155f57600080fd5b611568846114c1565b9250611576602085016114c1565b9150604084013590509250925092565b60006020828403121561159857600080fd5b6115a1826114c1565b9392505050565b6000602082840312156115ba57600080fd5b5035919050565b6000602082840312156115d357600080fd5b6115a182611507565b600080604083850312156115ef57600080fd5b6115f8836114c1565b9150611541602084016114c1565b6020808252600a90820152692737ba1030b236b4b71760b11b604082015260600190565b600181811c9082168061163e57607f821691505b60208210810361165e57634e487b7160e01b600052602260045260246000fd5b50919050565b634e487b7160e01b600052601160045260246000fd5b8082018082111561061a5761061a611664565b8181038181111561061a5761061a611664565b634e487b7160e01b600052600160045260246000fd5b600181815b808511156116f15781600019048211156116d7576116d7611664565b808516156116e457918102915b93841c93908002906116bb565b509250929050565b6000826117085750600161061a565b816117155750600061061a565b816001811461172b576002811461173557611751565b600191505061061a565b60ff84111561174657611746611664565b50506001821b61061a565b5060208310610133831016604e8410600b8410161715611774575081810a61061a565b61177e83836116b6565b806000190482111561179257611792611664565b029392505050565b60006115a160ff8416836116f9565b808202811582820484141761061a5761061a611664565b6000826117dd57634e487b7160e01b600052601260045260246000fd5b50049056fea26469706673582212200a9fce6c5d575d6bb28bf03963314a6c8c56d1571ea839a71d30e44e2412181864736f6c63430008130033",
    "sourcePath": "d:/0xJ.contracts-0xJ__GovernanceToken/contracts/GovernanceToken.sol",
    "compiler": {
        "name": "solc",
        "version": "0.8.19+commit.7dd6d404"
    },
    "functionHashes": {
        "MAX_CAP()": "d669e1d4",
        "MAX_RATE()": "c24dbebd",
        "SPAN_MAX()": "e537ca8e",
        "SPAN_MIN()": "91956d9c",
        "allowance(address,address)": "dd62ed3e",
        "approve(address,uint256)": "095ea7b3",
        "available_mint()": "31eb4cc3",
        "balanceOf(address)": "70a08231",
        "burn(uint256)": "42966c68",
        "burnFrom(address,uint256)": "79cc6790",
        "decimals()": "313ce567",
        "decreaseAllowance(address,uint256)": "a457c2d7",
        "increaseAllowance(address,uint256)": "39509351",
        "inflation_rate()": "180692d0",
        "last_tuning_on()": "5bb9cec8",
        "max_supply()": "8a333b50",
        "mint(address,uint256)": "40c10f19",
        "name()": "06fdde03",
        "revokeAdmin(address)": "2d345670",
        "runInflation(bool)": "bdbebeec",
        "setAdmin(address,bool)": "4b0bddd2",
        "setBurner(address,bool)": "0d895ee1",
        "setMinter(address,bool)": "cf456ae7",
        "symbol()": "95d89b41",
        "totalSupply()": "18160ddd",
        "transfer(address,uint256)": "a9059cbb",
        "transferFrom(address,address,uint256)": "23b872dd",
        "tuneInflation(uint256,uint256)": "02e961f5",
        "tuning_span()": "a04eaa49"
    },
    "gasEstimates": {
        "creation": {
            "codeDepositCost": "1233600",
            "executionCost": "infinite",
            "totalCost": "infinite"
        },
        "external": {
            "MAX_CAP()": "261",
            "MAX_RATE()": "306",
            "SPAN_MAX()": "305",
            "SPAN_MIN()": "262",
            "allowance(address,address)": "infinite",
            "approve(address,uint256)": "24697",
            "available_mint()": "2385",
            "balanceOf(address)": "2608",
            "burn(uint256)": "81020",
            "burnFrom(address,uint256)": "infinite",
            "decimals()": "245",
            "decreaseAllowance(address,uint256)": "26996",
            "increaseAllowance(address,uint256)": "infinite",
            "inflation_rate()": "2363",
            "last_tuning_on()": "2341",
            "max_supply()": "2340",
            "mint(address,uint256)": "infinite",
            "name()": "infinite",
            "revokeAdmin(address)": "51127",
            "runInflation(bool)": "infinite",
            "setAdmin(address,bool)": "infinite",
            "setBurner(address,bool)": "infinite",
            "setMinter(address,bool)": "infinite",
            "symbol()": "infinite",
            "totalSupply()": "2382",
            "transfer(address,uint256)": "51117",
            "transferFrom(address,address,uint256)": "infinite",
            "tuneInflation(uint256,uint256)": "74569",
            "tuning_span()": "2406"
        }
    }
}